:020000040101F8
:10000000C0500020350E0101490E01014B0E0101C7
:100010004D0E01014F0E0101510E010100000000C3
:10002000000000000000000000000000530E01016D
:10003000550E010100000000570E0101590E01018B
:100040005B0E01015B0E01015B0E01015B0E010104
:10005000D7280101930601015B0E01015B0E01012E
:100060005B0E01015B0E01015B0E01015B0E0101E4
:100070005B0E01015B0E01015B0E01015B0E0101D4
:100080005B0E01015B0E01015B0E01015B0E0101C4
:100090005B0E01015B0E01015B0E01015B0E0101B4
:1000A0005B0E01015B0E01015B0E01015B0E0101A4
:1000B0005B0E0101DFF80CD002F00AFD004800479A
:1000C00015010101C050002072B600BF00BF00BF83
:1000D00000BF30BF00BF00BF00BF00BF62B67047A7
:1000E0001FB5072002465C4B19684FF6FF03194005
:1000F0005A4B0B4343EA0221574B196000BF0420BF
:10010000009000200190012002900390684600F0CA
:10011000ADFE1FBD70B505460E460121504800F0EA
:10012000A8FF01214F4800F0F3FF002001F04AF83A
:100130004D48806940F480304B49886108468069A9
:1001400040F48010886100214FF4E13000F0BAF8EB
:100150004648806820F00400444988604FF48020BD
:10016000486002220421414801F05DFA3F48C0681E
:1001700044F2403188433D49C8600846C06840F4B5
:100180008060C860012244F23071384801F04BFAB7
:1001900002224021354801F046FA3348806920F4B4
:1001A0008030314988610846C06B20F0005040F033
:1001B0008050C8630846C06B6FF31300C8630846DD
:1001C000C06B096B08432849C8630846806C40F03F
:1001D000010088642649012001F004FFFFF780FF39
:1001E00024A002F0A7FC04F033F90446214628A01D
:1001F00002F0A0FC04F024FA044621462BA002F0F1
:1002000099FC04F025FA0446214628A002F092FC4D
:10021000002000F0CCFC002070BD00BFFEE770B5F0
:1002200004460D460A2C05D100BF0D2000F032F91E
:100230000028FAD100BFE0B200F02CF90028FAD172
:10024000204670BD10B5044600BF00F0EDF9B0F1D6
:10025000FF3FFAD010BD00000CED00E00000FA05F1
:10026000014030000140200000F0014000D001407A
:1002700000093D00426F61726420757365206578E6
:100280007465726E616C20636C6F636B00000000BC
:10029000454D56204C69622076657273696F6E20F9
:1002A0003078253038780D0A00000000454D562082
:1002B0004C69622076657273696F6E2025730D0A32
:1002C000000000003EB504460D460120029001905A
:1002D0000F2000906946F84801F021FAF748006BBA
:1002E0004FF47A71484300EBC4002101B0FBF1F0F8
:1002F000F3490860052001218140F24A430942F890
:10030000231000BFED48406840F00100EB49486011
:100310000846C06840F00100C860EB48EB4908603F
:10032000EB48EC4908600020E84909680880012092
:10033000E649096848800020E4490968C8804FF40C
:100340008060E249096888800020E24909680880E5
:100350000120E049096848800020DE490968C8801A
:100360004FF48070DB49096888800720DA4908600B
:10037000D9488838C06840F08000D7498839C860BB
:10038000CF4800780860CE480088C0F30720486056
:100390000846C06820F08000C860A720886045F04B
:1003A0000300C86001204860052001218140420906
:1003B000920002F1E022C2F8001100BF3EBD4FF4EE
:1003C0008071C04A1160C449883948680721C24A0F
:1003D000883AC2F888101146C96841F08001D1609E
:1003E000B74909681160002151601146C96821F0C0
:1003F0008001D160A72191600321D160114648603E
:100400008915B04A803A11607047B348883840690E
:1004100000F04000A8B1AD4800684088AB490968C9
:1004200089880844A94909680988411AA7480068C9
:100430008088401C91FBF0F200FB121008B90120EB
:1004400070470020FCE7A4488838406820F001008D
:10045000A149883948600846806840F002008860F9
:1004600000209C490968088001209A490968488051
:10047000002098490968C8804FF480709549096840
:10048000888095488838406840F001009249883952
:100490004860704701468D480068B8B18B480068D5
:1004A00040888A4A126892881044884A12681288E2
:1004B000821A864800688088401C92FBF0F300FB9B
:1004C0001320824A12689288904202DB4FF0FF307C
:1004D00070477E48006842887C4800680830815434
:1004E0007A4800684088401C784A12689288521CFA
:1004F00090FBF2F302FB1300744A126850807648B6
:100500008838406840F08200734A883A5060002082
:10051000DEE7014607E070488838406840F0820016
:100520006D4A883A5060694800684088674A126896
:1005300092881044654A12681288821A63480068DB
:100540008088401C92FBF0F300FB13205F4A126886
:1005500092889042DFDA5D48006842885B48006814
:1005600008308154594800684088401C574A126836
:100570009288521C90FBF2F302FB1300534A12685C
:10058000508055488838406840F08200524A883A86
:1005900050600020704730B502460B464B4800685B
:1005A00010B94FF0FF3030BD002130E047480068FF
:1005B0004088464C2468A4882044444C24682488FD
:1005C000041B424800688088401C94FBF0F500FB47
:1005D00015403E4C2468A488A04200DB19E0545C1E
:1005E0003A4800684588394800680830445537481B
:1005F00000684088401C354C2468A488641C90FB2B
:10060000F4F504FB1500314C24686080491C9942C4
:10061000CCD300BF30488838406840F082002E4C70
:10062000883C60600846BEE72A48006810B96FF051
:100630000100704727480068408826490968898872
:100640000844244909680988411A224800688088BA
:10065000401C91FBF0F200FB1210002816DD1D4833
:1006600000680088401C1B4909688988491C90FB68
:10067000F1F201FB1200174909680880154800686B
:100680000188144800680830405CD2E74FF0FF3022
:10069000CFE770B510488838806800F00F05042D4A
:1006A0001CD004DC012D74D0022D73D154E0062D32
:1006B00071D00C2DF9D112E000D0014000F00140C2
:1006C0000800002080E100E034000020000000204D
:1006D0004E040020040000208860014000BF002478
:1006E00032E04948006840884749096889880844D9
:1006F000454909680988411A434800688088401CB8
:1007000091FBF0F200FB12103F490968898888428A
:1007100018DA3E480068C1B23B48006842883A484F
:10072000006808308154384800684088401C3649C9
:1007300009688988491C90FBF1F201FB12003249DB
:1007400009684880601CC4B2102C04DA2F48843039
:1007500000680028C5D155E0002437E02C48006827
:1007600040882B490968898808442949096809880B
:10077000411A274800688088401C91FBF0F200FB7A
:10078000121048B92148406820F082001F49486093
:1007900023E024E024E024E01D4800680088401C99
:1007A0001B4909688988491C90FBF1F201FB120082
:1007B00017490968088016480068018814480068CD
:1007C0000830405C11490860601CC4B2102C04DA87
:1007D0000E48803000681028C0D300BF12E011E03E
:1007E00000BF0C480068401C0A490860142802D267
:1007F000FFF7E5FD05E0002004494860881506493B
:10080000086000BF00BF70BD040000200060014010
:10081000000000200C00002080E100E070B50546DB
:100820000C46164629467EA002F084F904E014F82E
:10083000011B7CA002F07EF9301EA6F10106F6D164
:100840007AA002F077F970BD10B504467848C06808
:1008500040F001007649C860764951F8240000F064
:10086000D6F8062004EB8401714A02EB810188600E
:1008700010BD10B56E48B030006810B9092000F006
:10088000C6F86B48C06840F001006949C86010BDF7
:10089000014601EB8100664A02EB8000006908B165
:1008A000012070470020FCE770B504460D4616464F
:1008B000604951F8240000F0AAF8062004EB8401F6
:1008C0005B4A02EB8101886004EB8400114641F829
:1008D00020505748B03040F8246004EB840001EB0E
:1008E0008000C06840F0010004EB840102EB81014C
:1008F000C860504951F8240000F01F0201219140C6
:100900004D4A430942F8231000BF032004EB840141
:10091000474A02EB8101886070BD2DE9F04106462F
:100920004648046B002500232046A0FB061705FB64
:10093000067204FB03250C460020D4F1FF31A841C8
:1009400001DA00BFFEE7002221461046FFF7ACFFA8
:1009500000BF0020FFF79CFF0028FAD0BDE8F0811F
:1009600070B50446214636A002F0E4F8002507E001
:1009700037A002F0DFF84FF47A70FFF7CEFF6D1C5E
:10098000A542F5D333A002F0D5F870BD2DE9F041B2
:1009900005462E464FF0FF34294629A002F0CAF83A
:1009A00000272CE02548006B4FF47A7200FB02F11F
:1009B00000221046FFF778FF25A002F0BBF817E0F1
:1009C000FFF732FE0446002C12DB214622A002F083
:1009D000B1F84C2C01D11E260AE0532C01D105267A
:1009E00006E0452C01D1374607E01C4802F0A2F88A
:1009F0000020FFF74DFF0028E2D000BF7F1CB74268
:100A0000D0D314A002F096F83046BDE8F08100F093
:100A10001F0201219140124A430942F823107047F6
:100A200025730A0025303258200000000A0000001B
:100A300000300140E84B010180E200E000F001409D
:100A400057616974202564207365636F6E643A0092
:100A500023000000240A000025640000984C0101D6
:100A600080E100E02DE9F0418EB0074600264021EC
:100A7000864801F0E8FF4FF40371854801F0E3FF79
:100A80004FF40271834801F0DEFF83A002F052F8B8
:100A90003D46284601F086FA0546C5EBC500834968
:100AA00001EB0014256041F2883060610020E061B4
:100AB0004FF4BA70E062606301202063A0630020FD
:100AC0002062FE202065002084F8670084F866001C
:100AD00084F86D0084F86C00102020640020E06031
:100AE00000BF204601F085FCB0F10008F9D1204696
:100AF00001F041FB654A6946204602F0C5FAB0F1B3
:100B000000080CD1002606E0604A701C115C68A049
:100B100002F010F8761C5D480078B042F4DC66A064
:100B200002F008F800200EB0BDE8F08170B506466E
:100B300000250024564861A109680160002054493D
:100B400048600420C1F80802524B0A460121304691
:100B500003F0F6FB05462DB129465AA001F0EAFF45
:100B600000BFFEE74B4801685BA001F0E3FF0024F3
:100B700006E04848001D015D4DA001F0DBFF641C4C
:100B800044480068A042F4DC4BA001F0D3FF56A01B
:100B900001F0D0FF3F4890F8041256A001F0CAFFC0
:100BA0003C4890F8051256A001F0C4FF70BD92B009
:100BB00007464FF003080FF25419002400260225BF
:100BC00056A001F0B7FF00BFFFF72EFD0446B0F1BD
:100BD000FF3FF9D0312C03D102250FF27C190EE032
:100BE000322C03D101250FF2801908E0332C03D1F8
:100BF00000250FF2841902E003250FF2101949466F
:100C000061A001F097FF40E04046FFF7BFFE03F010
:100C100027FB06E060A001F08DFF4FF4FA70FFF7AC
:100C20007CFE384603F0E6FA0028F3D15FA001F01D
:100C300081FF294601AA384603F00EFC041E03D1A9
:100C40005DA001F077FF03E0214661A001F072FF93
:100C500000BF66A001F06EFF00BFFFF7E5FC06468F
:100C6000B0F1FF3FF9D0722E06D167A001F062FF0C
:100C70003846FFF7F7FE07E0632E05D167A001F0C5
:100C800059FF3846FFF752FFE3E7BDE7680500204C
:100C9000A8050020B40700205465737420436F6CCE
:100CA000645265736574210A000000004C10002036
:100CB0003078253032782C000A00000000840000D3
:100CC000000000007265637620726573706F6E734A
:100CD00065322025640A000072656376206C656EBB
:100CE0002025640A00000000535720537461747576
:100CF000733A0A007377613A3078253032780A0007
:100D00007377623A3078253032780A00436C617329
:100D100073204128352E3056290000000D0A6368E3
:100D20006F6F736520766F6C746167653A0D0A307A
:100D30003A35560D0A313A33560D0A323A312E38C9
:100D4000560D0A333A312E32560D0A4F74686572C9
:100D50003A35560D0A000000436C61737320422837
:100D6000332E305629000000436C617373204328F2
:100D7000312E38562900000055736572206D6F645E
:100D80006528312E32562900566F6C7461676520D4
:100D900025730D0A000000005761697420696E73A5
:100DA00065727420494343210A000000496E73654F
:100DB00072742049430A000069736F373831365F17
:100DC000696E69742066696E6973686564210A00DA
:100DD00069736F373831365F696E6974206661698F
:100DE0006C6564202564210A00000000696E70753E
:100DF00074206F70657261746520636D6428722F52
:100E000063293A0A0000000069736F3738313620D1
:100E1000726573657420636172640A0049534F37C9
:100E200038313620526561642052616E6420506111
:100E3000726D0A0009480A49086000688546094839
:100E40008047094800470000FEE7FEE7FEE7FEE7AF
:100E5000FEE7FEE7FEE7FEE7FEE7FEE70000010132
:100E600008ED00E0F5290101B50001012DE9F04789
:100E70000446E06810B1E068012800D103E01121C8
:100E800059A0FFF7CAF96068102800D203E01221C8
:100E900055A0FFF7C2F9A068102800D203E0132183
:100EA00051A0FFF7BAF9E068002853D000BF5B48B3
:100EB0000068C0F3022005462846D4E90123014614
:100EC000C1F10708B8F1040F02D94FF0040801E09E
:100ED000C1F10708C44601F10408B8F1070F02D2B6
:100EE0004FF0000801E0A1F1030847464FF0010868
:100EF00008FA0CF8A8F1010808EA020808FA07F84D
:100F00004FF0010909FA07F9A9F1010909EA0309F2
:100F100048EA090600BF30462168002908DA0207BE
:100F2000170E3E4A0C3201F00F031B1FD75403E08B
:100F30000207130E3A4A535400BF206800F01F0204
:100F4000012191404209920002F1E022C2F8001111
:100F500000BF0AE0206800F01F0201219140314AE1
:100F6000430942F8231000BF00BFBDE8F08770B509
:100F700004460D46B4F1005F02D0B4F1102F00D149
:100F800003E0332118A0FFF748F92748854200D233
:100F900003E0342114A0FFF740F9244905EA0100D9
:100FA00020431E49091F086070BD10B50446042C7B
:100FB00001D0601D00B903E044210BA0FFF72DF91B
:100FC000042C08D14FF0E020006940F004004FF0FD
:100FD000E021086107E04FF0E020006920F0040004
:100FE0004FF0E021086110BD2E2E5C2E2E5C2E2EBF
:100FF0005C2E2E5C2E2E5C4C696272617269657388
:101000005C4D48534350555F4472697665725C731A
:1010100072635C6D6973632E630000000CED00E089
:1010200000E400E080E100E0FFFF0F0080FFFF1F11
:1010300070B504460D46EF48204008B104B103E006
:101040005121EDA0FFF7E9F80DB1012D00D103E02A
:101050005221E9A0FFF7E1F82DB1F648806820435E
:10106000F449886004E0F3488068A043F14988604F
:1010700070BD70B504460D46EF48204008B104B17C
:1010800003E07821DCA0FFF7C8F80DB1012D00D1F5
:1010900003E07921D8A0FFF7C0F82DB1E5484068FA
:1010A0002043E449486004E0E2484068A043E14945
:1010B000486070BD70B504460D46E048204008B158
:1010C00004B103E09A21CCA0FFF7A7F80DB1012DE0
:1010D00000D103E09B21C8A0FFF79FF8D5484069E5
:1010E00004F070418843D349486125B1084600693E
:1010F0002043086104E0CF480069A043CD4908615E
:10110000CC48406904F070410843CA49486170BD49
:1011100070B504460D46C848204008B104B103E04C
:10112000C421B5A0FFF779F80DB1012D00D103E07E
:10113000C521B1A0FFF771F82DB1BE48C0682043AA
:10114000BC49C86004E0BB48C068A043B949C86056
:1011500070BD70B50446022C00D204E040F20D11BF
:10116000A5A0FFF75AF86CB9B248006820F4E02057
:10117000B049086000BFAF4800680028FBD0FEF708
:10118000A3FF13E0012C11D1AA48006820F4E0204D
:1011900040F48030A7490860A948C56845F0804000
:1011A000A749C860FEF790FFA548C56070BDA1487B
:1011B000406AA449084070479E48806A43F60F7110
:1011C0000840704710B504460CB1012C00D104E072
:1011D00040F2391188A0FFF720F814B1012C0ED18C
:1011E00006E09448006820F400709249086006E028
:1011F0009048006840F400708E49086000BF00BF4E
:1012000010BD10B50446022C01D0012C00D104E021
:1012100040F24B1178A0FFF700F8012C02D0022C0D
:1012200016D109E08348006820F030008149086049
:101230000846006808600BE07E48006820F0300037
:101240007C4908600846006840F01000086000BF54
:1012500000BF10BD10B504461CB1012C01D0022CFA
:1012600000D104E04FF4B07163A0FEF7D6FF24B3C1
:10127000012C02D0022C2CD10EE06E48006840F008
:1012800008006C4908600846006820F00400086007
:101290000846006808601CE06648006840F00800E6
:1012A000644908600846006820F0040008600846A9
:1012B000006840F0040008600BE05E48006820F021
:1012C00008005C4908600846006820F004000860D7
:1012D00000BF00BF10BD10B504460CB1012C00D1F9
:1012E00004E040F27B1144A0FEF797FF14B1012CFB
:1012F00016D109E04F48006820F001004D49086010
:101300000846006808600BE04A48006820F00100C9
:10131000484908600846006840F00100086000BFC6
:1013200000BF10BD4349096801F03001102902D106
:101330004549016006E03F49096801F0300109B9FB
:10134000424901603B49C96A4FF47A725143416096
:101350003849096B51438160704730B50B46002115
:10136000012A26D13A4D5C1BAB421DD009DC394C19
:101370001C4484B1B4F5A43F0FD0B4F5AC3F17D1F1
:101380000DE0B4F5805F11D0B4F5005F0AD0B4F57C
:10139000405F0DD105E000210AE0032108E00521AE
:1013A00006E000BF0B2103E00D2101E00F2100BF8B
:1013B00062E0022A60D1264D5C1BAB4255D00CDCAA
:1013C000254C1C44ACB1B4F5006F10D0B4F5A83F67
:1013D00044D0B4F5B03F4ED142E0B4F5805F46D082
:1013E000B4F5005F3FD0B4F5405F44D13AE000214E
:1013F00041E03EE0070000302E2E5C2E2E5C2E2EAB
:101400005C2E2E5C2E2E5C4C696272617269657373
:101410005C4D48534350555F4472697665725C7306
:1014200072635C6D68736370755F737973637472F4
:101430006C2E630000F00140034730F40F0000F011
:1014400000E001400FC7F50300D8B80500A24A0428
:101450000080014000E8FFBF00F0FFBF02210AE06A
:10146000042108E000BF0A2105E00C2103E00E2161
:1014700001E0012100BF00BF4E4CA0420AD14E4CFA
:10148000A46B24F01F044C4DAC632C46A46B0C439E
:10149000AC632DE0474C5834A0420BD1464CA46BB2
:1014A00024F4F854444DAC632C46A46B44EA012464
:1014B000AC631DE03F4CB034A0420BD13E4CA46B5A
:1014C00024F4F8143C4DAC632C46A46B44EA01446C
:1014D000AC630DE0394CA0420AD1374CA46B24F028
:1014E000F854354DAC632C46A46B44EA0164AC63FC
:1014F00030BD10B504463248204478B1B0F5805F65
:1015000011D0B0F5005F03D0B0F5405F10D100E01E
:1015100000BF01210802FFF7FBFD09E0012148029D
:10152000FFF7F6FD04E001218802FFF7F1FD00BF9F
:1015300000BF10BD22490144B9B1B1F5805F1BD095
:10154000B1F5005F03D0B1F5405F1CD106E01A4948
:10155000896921F08071184A916114E016498969FE
:1015600041F08071144A91610DE01349896921F0BD
:101570000071114A916106E00F49896921F080618B
:101580000D4A916100BF00BF704710B504460D4879
:10159000204418B1B0F5805F0AD104E0012108466B
:1015A000FFF7B6FD04E001210220FFF7B1FD00BF07
:1015B00000BF10BD0008004000F0014008090040D5
:1015C0000080FEBF00A0FEBF7FB50446F84B0FCBE6
:1015D0008DE80F00F74884420BD0F6481030844263
:1015E00007D0F4482030844203D0F248303084429F
:1015F00000D103E03321F0A0FEF70FFE002507E045
:101600005DF82500A04202D1284604B070BD6D1CD3
:10161000042DF5DB4FF0FF30F7E710B50121080589
:10162000FFF776FD10BD2DE9F041074688461646C6
:10163000E04887420BD0DF481030874207D0DD48B2
:101640002030874203D0DB483030874200D104E0AD
:101650004FF4C671D8A0FEF7E0FD4FEA18404FEAFC
:10166000004018B9B8F1000F00D004E040F28D112D
:10167000D1A0FEF7D2FD012E05D0022E03D0032EFD
:1016800001D0042E00D104E04FF4C771CAA0FEF7C8
:10169000C4FD3846FFF798FF044600253BE00120D3
:1016A000A84000EA0800A8B3D24850F824006A0015
:1016B000032191408843CF4941F82400012E06D0F0
:1016C000022E05D0032E0ED0042E22D116E020E0EB
:1016D000C84850F824006A00012191400843C549D8
:1016E00041F8240015E0C34850F824006A000221A4
:1016F00091400843BF4941F824000AE0BD4850F832
:1017000024006A00032191400843BA4941F82400AB
:1017100000BF00BF6D1C102DC1D3BDE8F08170B5B6
:1017200004460D464FF0FF36A24884420BD0A14834
:101730001030844207D09F482030844203D09D4817
:101740003030844200D103E055219BA0FEF765FDB7
:1017500028686FF30F0010B9286800B103E0562124
:1017600095A0FEF75AFD686801280BD0686802282A
:1017700008D06868032805D06868052802D0686822
:10178000042800D103E057218BA0FEF746FD2888EE
:1017900081B22046AA68FFF746FFA868022800D059
:1017A00070BD2046FFF710FF06466868062855D230
:1017B000DFE800F054030C152A3FA06829680843AD
:1017C000A060E06829688843E06047E0A068296875
:1017D0000843A060E06829680843E0603EE0A06834
:1017E00029688843A060E06829688843E060206831
:1017F000296888432060804830F81600298808430B
:101800007D4921F8160029E0A06829680843A060F6
:10181000E06829680843E060206829688843206000
:10182000754830F8160029880843734921F81600D6
:1018300014E0A06829688843A060E06829688843AC
:10184000E06020682968084320606B4830F8160083
:1018500029688843684921F8160000BF00BF00BF0F
:101860009EE74FF6FF710160012141608160704782
:1018700070B505460C4600264E4885420BD04D48B3
:101880001030854207D04B482030854203D049486C
:101890003030854200D103E0A62147A0FEF7BDFC11
:1018A000012C25D0022C23D0042C21D0082C1FD0B1
:1018B000102C1DD0202C1BD0402C19D0802C17D0E0
:1018C000B4F5807F14D0B4F5007F11D0B4F5806FEB
:1018D0000ED0B4F5006F0BD0B4F5805F08D0B4F52E
:1018E000005F05D0B4F5804F02D0B4F5004F00D1B1
:1018F00003E0A72130A0FEF790FC286804EA10401E
:1019000008B1012600E00026304670BD0146086897
:101910004FF6FF7202EA1040704770B505460C465C
:101920000026244885420BD022481030854207D03B
:1019300020482030854203D01E483030854200D1F7
:1019400003E0C9211CA0FEF768FC012C25D0022C65
:1019500023D0042C21D0082C1FD0102C1DD0202CDB
:101960001BD0402C19D0802C17D0B4F5807F14D018
:10197000B4F5007F11D0B4F5806F0ED0B4F5006FD0
:101980000BD0B4F5805F08D0B4F5005F05D0B4F596
:10199000804F02D0B4F5004F00D103E0CA2106A069
:1019A000FEF73BFC2868204008B1012627E025E02F
:1019B000F84B010100D001402E2E5C2E2E5C2E2E05
:1019C0005C2E2E5C2E2E5C4C6962726172696573AE
:1019D0005C4D48534350555F4472697665725C7341
:1019E00072635C6D68736370755F6770696F2E6397
:1019F0000000000080D10140100000200026304689
:101A000070BD0146086880B270472DE9F041054677
:101A10000C464FF0FF3600274FF00008F84885428B
:101A20000BD0F7481030854207D0F548203085426A
:101A300003D0F3483030854200D104E0ED21AFF20D
:101A40008800FEF7EAFB012C25D0022C23D0042CC1
:101A500021D0082C1FD0102C1DD0202C1BD0402CA6
:101A600019D0802C17D0B4F5807F14D0B4F5007F46
:101A700011D0B4F5806F0ED0B4F5006F0BD0B4F573
:101A8000805F08D0B4F5005F05D0B4F5804F02D078
:101A9000B4F5004F00D104E0EE21AFF2E400FEF710
:101AA000BCFB2846FFF790FD0646D64830F81600E6
:101AB00000EA0407D34830F8160024EA0008D148A9
:101AC00030F81600204018B1A8683843A86001E03B
:101AD000C5F80480BDE8F0812DE9F04105460C46CB
:101AE0004FF0FF3600274FF00008C54885420BD065
:101AF000C3481030854207D0C1482030854203D00A
:101B0000BF483030854200D105E040F20B11AFF202
:101B10005810FEF782FB012C25D0022C23D0042C78
:101B200021D0082C1FD0102C1DD0202C1BD0402CD5
:101B300019D0802C17D0B4F5807F14D0B4F5007F75
:101B400011D0B4F5806F0ED0B4F5006F0BD0B4F5A2
:101B5000805F08D0B4F5005F05D0B4F5804F02D0A7
:101B6000B4F5004F00D105E04FF48671AFF2B81024
:101B7000FEF753FB2846FFF727FD0646A14830F83D
:101B8000160000EA04079F4830F8160024EA00080F
:101B90009C4830F81600204018B1A868B843A860E7
:101BA00002E04FEA08406860BDE8F08170B5054684
:101BB0000C461646924885420BD09148103085421B
:101BC00007D08F482030854203D08D483030854281
:101BD00000D105E04FF49571AFF22420FEF71DFB14
:101BE000012C25D0022C23D0042C21D0082C1FD06E
:101BF000102C1DD0202C1BD0402C19D0802C17D09D
:101C0000B4F5807F14D0B4F5007F11D0B4F5806FA7
:101C10000ED0B4F5006F0BD0B4F5805F08D0B4F5EA
:101C2000005F05D0B4F5804F02D0B4F5004F00D16D
:101C300005E040F22B11AFF28020FEF7EEFA26B954
:101C400021462846FFF748FF05E0012E03D1214633
:101C50002846FFF7DAFE70BD2DE9F04104460E4636
:101C600000256F1E664884420BD0654810308442C0
:101C700007D063482030844203D06148303084422A
:101C800000D105E040F24111AFF2D420FEF7C5FAD1
:101C90002046FFF799FC0746002526E0594830F812
:101CA00017000121A940084078B10120A840304028
:101CB00028B1A0680121A9400843A06014E0A168F0
:101CC0000120A8408143A1600EE00120A8403040DF
:101CD00028B120680121A9400843206004E0206861
:101CE0000121A940884320606D1C102DD6D3BDE88A
:101CF000F08170B504460D461646414884420BD02B
:101D00003F481030844207D03D482030844203D001
:101D10003B483030844200D105E040F26B11AFF215
:101D20006830FEF77AFA280C000408B905B105E01E
:101D30004FF4B671AFF28030FEF76FFA1EB1E06873
:101D40002843E06002E0E068A843E06070BD47F22D
:101D500001002D49086070472DE9F04106460D4607
:101D60001746274886420BD025481030864207D0B8
:101D700023482030864203D021483030864200D1AB
:101D800005E040F2C111AFF2D030FEF746FA280C60
:101D9000000408B905B105E04FF4E171AFF2E83095
:101DA000FEF73BFA0FB1012F00D105E040F2C3115D
:101DB000AFF2FC30FEF731FA3046FFF705FC04467F
:101DC00034B1012C05D0022C20D0032C40D11EE0D0
:101DD00000BF57B10C48001D0068210105FA01F150
:101DE00008430749C1F8240209E00748001D0068BC
:101DF000210105FA01F188430149C1F8240227E0D5
:101E000000D001401000002020D2014000BF7FB16F
:101E1000204604EBD0714910A4EB41010A0105FAF8
:101E200002F1184A12681143174AC2F828120EE04C
:101E3000204604EBD0714910A4EB4101090105FAD9
:101E400001F1104A12688A430F49C1F8282200BFE5
:101E500000BFBDE8F08110B504460CB1012C00D1E3
:101E600005E040F2EB11AFF2B040FEF7D6F90548BD
:101E70000838006820F0010020430349C1F820021F
:101E800010BD000028D2014000D0014010B500EB89
:101E90004012FB4B03EB0212D2F800227AB100EBA6
:101EA000401203EB0212D2F8042200EB4013F44C70
:101EB00004EB0313D3F80C329A4200DD10BD00EBA3
:101EC0004012EF4B03EB0212C2F8001200EB40127B
:101ED00003EB0212D2F8082200EB4013E84C04EBAB
:101EE0000313C3F8042200BFE8E7032800DB7047B0
:101EF000002100EB4012E24B03EB0212C2F8001289
:101F000000EB401203EB0212C2F8081200EB401281
:101F100003EB0212C2F80C12491E00EB401203EB55
:101F20000212C2F8041200BFE1E70146032901DAF8
:101F3000012070470020FCE70146022901DD012055
:101F40007047D048405CD04AD060D04800EB411088
:101F5000008ACF4A52F82120D06407E0CB4800EB3A
:101F60004110008ACA4A52F82120D064C74800EBC9
:101F70004110008AC64A52F82120D26C9042EDD11D
:101F8000C24800EB4110C08AC14A52F821201063B8
:101F9000BE4800EB4110008BBD4A52F821209063EF
:101FA0000020CDE70146B8484068B64A525C10436D
:101FB000B54A506001F003007047014600200EE072
:101FC000012282400A4042B1B04A02EB40125268FC
:101FD0000AB100BFFEE700BFFEE7421CD0B20328F3
:101FE000EEDB70472DE9F04305460C463DB1072D69
:101FF00005DCA848844202D3A748844203D94FF0A5
:10200000FF30BDE8F083A048066B00BF4FF4FA70C4
:1020100006FB00F8A8EB5400B0FBF4F7781CB8FB03
:10202000F0F9002330E001209840284050B3974851
:1020300000EB43104460954800EB4310C0F8089053
:10204000924800EB4310C660904901EB43110F82A8
:1020500000208E4901EB4311C8824FF47A708B49FE
:1020600001EB431108830020884901EB4311C8614B
:10207000854840688349C95C0843834948601846DD
:10208000FFF75AFF581CC3B2032BCCDB0020B8E784
:10209000F0B503460E46144606B114B96FF00400BD
:1020A000F0BDFF277000B3F810C00CF1010C00FB6D
:1020B0000CF000EB640090FBF4F2052116E0B2FB9B
:1020C000F1F001FB1020B8420ED2B2FBF1F04FF656
:1020D000FF7C604508D20D46B2FBF1F001FB1020F9
:1020E00080B2071E00D103E0481C81B2FF29E6DD63
:1020F00000BF5D82B2FBF5F0401E98820020CFE762
:102100000246002070470020704770B504462068E2
:10211000022800DC14B94FF0FF3070BD5B49206825
:1021200001EB4015208E82B2A08D81B22846FFF7C8
:10213000AFFF061E01DA3046EFE70020A16EC1F8BE
:102140000002401EA16EC1F804020020E5E701462E
:102150000868022801DD00207047002048604C4AD2
:10216000086852F82000C06E00F0010008B101209C
:1021700048604868F0E72DE9F041054628680328E3
:1021800003DB4FF0FF30BDE8F0814149286851F88A
:1021900020400020206102202861686BE862A86B63
:1021A000286300206862284601F004FA2846FFF7F9
:1021B000ACFF30B128783949FFF768FE4FF0FF30A7
:1021C000E1E70020A0623149286801EB4016B08A9F
:1021D0002065708A60654AF2F8706063E063308B56
:1021E000A06344F6C060206442F25670A0642020D0
:1021F00060600320A0600420A06101202062E061F3
:10220000002060614FF47F60E066244F7F1E20490C
:10221000286851F82000C06E00F0080008281DD181
:10222000BF1C286851F82000C06E00F00100A8B162
:102230000120164A296802EB41110860E06040F273
:102240003270206101E00120E0601049286801EB54
:10225000401000680128F6D0002094E7287839461D
:10226000FFF714FE4FF0FF308DE72DE9F0410546F2
:102270002868032814DB4FF0FF30BDE8F081000030
:10228000BC090020144C010100F00140EC0F0020BB
:10229000084C010140420F00404B4C000DF5FFFF80
:1022A000FD49286851F82040002020610320286162
:1022B000686BE862A86B286300206862284601F01A
:1022C00079F92846FFF721FF30B12878F349FFF765
:1022D000DDFD4FF0FF30D0E70020A062F049286814
:1022E00001EB4016B08A2065708A60654AF2F8708A
:1022F0006063E063308BA06344F6C060206442F208
:102300005670A064202060600320A0600420A061BB
:1023100001202062E061002060614FF47F60E06690
:10232000DE4F7F1EDC49286851F82000C06E00F0A7
:10233000040004281CD1BF1C286851F82000C06E7E
:1023400000F00100A0B10420E0600120D44A296817
:1023500002EB4111086040F23270206100BFD049A9
:10236000286801EB401000680128F8D0002084E7BD
:1023700028783946FFF78AFD4FF0FF307DE72DE9D9
:10238000F041044614B12068022803DD4FF0FF300D
:10239000BDE8F081C249206801EB4017BE492068C2
:1023A00051F820600020306138600220F060204643
:1023B00001F000F9012020610020A06000BFB649B3
:1023C000206851F82000C06E00F008000828F6D1FF
:1023D000002500E06D1CB348006B0A21B0FBF1F052
:1023E000A842F7D82078AD49491EFFF74FFD0020DD
:1023F000CEE770B5044614B12068022802DD4FF024
:10240000FF3070BD25680020A34951F825100861F0
:10241000A34A216802EB41110860206800EB4010DC
:10242000A14A02EB0011204601F086F8204601F097
:10243000C1F8994850F82500C06E00F0010010B9AD
:102440009648401CDDE76069B0F5966F09D0B0F59D
:10245000E16F08D0A0F6B83038B1B0F5FA6F06D108
:1024600006E0002506E0032504E0022502E000BFA7
:10247000012500BF00BF8B48C06B65F31D70894903
:10248000C8638549206851F82000C06E00F008003C
:10249000082803D02046FFF772FFB2E70020B0E71C
:1024A0002DE9F04705464FF00009DFF8F081A8F16B
:1024B00002087B4800EB4517774850F825403868FC
:1024C000012804D002287ED0032874D1FFE0E06EFA
:1024D00000F02A00D8B1E06E00F0200020B1DFF853
:1024E000BC81A8F111086BE0E06E00F0020020B1A1
:1024F000DFF8A88108F1010862E0E06E00F0080052
:1025000000285DD0DFF89481A8F1010858E0E06E62
:1025100000F4C060002853D0206886B20020788381
:1025200040F20310864201D03B2E45D140F2031009
:10253000864206D101207883606840F00300606025
:102540003F2605EB4511584B03EB0111D1F808026A
:10255000411C05EB4513DFF850C10CEB0313C3F826
:10256000081205EB4511634603EB01110E5405EB10
:102570004510194601EB0010D0F80802B0F5007FB5
:1025800007D1002005EB45111A4602EB0111C1F8F5
:102590000802206920F020002061206940F4A87022
:1025A0002061206A10B94FF4C060E06602203860F4
:1025B000BDE8F08707E07DE1DFF8E080A8F11408CE
:1025C0000020386077E1E06E00F4807020B1DFF821
:1025D000CC80A8F1130879E0E06E00F0400020B153
:1025E000DFF8B880A8F1120870E0E06E00F0020099
:1025F00020B1DFF8A88008F1010867E0E06E00F084
:10260000100020B1DFF89480A8F104085EE0E06ECD
:1026100000F4C060F0B352E0206886B206F4807027
:10262000C0B1DFF87880A8F1040805EB45101E4919
:1026300001EB0010D0F8080205EB45111A4A02EB35
:102640000111C1F80402404605EB451102EB0111EE
:10265000C1F8000205EB4511134B03EB0111D1F852
:102660000802411C05EB4513DFF83CC00CEB0313DB
:10267000C3F8081205EB4511634603EB01110E5434
:1026800005EB4510194601EB0010D0F80802B0F533
:10269000007F0BE01AE00000084C01010DF5FFFF80
:1026A000EC0F002000F00140BC09002007D1002001
:1026B00005EB45111A4602EB0111C1F80802206A28
:1026C0000028A9D14FF4C060E06671E7F3E0A0688C
:1026D00000F00400042875D1E06E00F01A0098B1F3
:1026E000E06E00F01000102804D10120E061DFF856
:1026F000E88276E0E06E00F00200022871D1DFF897
:10270000D88208F108086CE0E06E00F40060B0F5D3
:10271000006F66D105EB4510B04901EB0010D0F811
:10272000080205EB4511AD4A02EB0111D1F80C127C
:1027300088420FD1E06968B9A06820F00400A06069
:102740004FF47F60E06640F2827020612846FFF718
:10275000CCFB42E03DE005EB4510A04901EB001049
:10276000D0F8080205EB45119C4A02EB0111D1F8A3
:102770000C12884227D005EB451102EB0111D1F86C
:102780000C02411C05EB4512944B03EB0212C2F8FC
:102790000C1205EB45111A4602EB0111095C216090
:1027A00005EB4510114601EB0010D0F80C02B0F516
:1027B000007F0ED1002005EB451102EB0111C1F89D
:1027C0000C0206E011E0A06900F0F000401CA061DE
:1027D00002E0E0690828BED300BF4FF40060E06665
:1027E000E6E62846FFF781FB63E0D4F86C80E06EF4
:1027F00000F4807020B1DFF8E08108F1010858E0B2
:10280000E06E00F0800020B1DFF8CC8108F1020812
:102810004FE0E06E00F0100020B1DFF8BC8108F15D
:10282000030846E0E06E00F4C060E8B338E02068DA
:1028300086B206F4807058B169480068C0EB001099
:102840008001A06460646449C91C2846FFF71EFB30
:1028500005EB4511614B03EB0111D1F80802411C56
:1028600005EB4513DFF874C10CEB0313C3F8081232
:1028700005EB4511634603EB01110E5405EB4510C2
:10288000194601EB0010D0F80802B0F5007F07D11F
:10289000002005EB45111A4602EB0111C1F80802B0
:1028A000206A0028C3D100E003E04FF4C060E06676
:1028B0007EE600E000BF00BF002020614FF47F6093
:1028C000E06641462846FFF7E1FAA06820F00400E0
:1028D000A06000BF6CE610B50020FFF7E1FD10BD61
:1028E00010B50120FFF7DCFD10BD2DE9F0410546D4
:1028F0002868032803DB4FF0FF30BDE8F081394939
:10290000286801EB40163849286851F8204000201B
:1029100020612846FFF7F9FB38B128782E49C91DF8
:10292000FFF7B4FA4FF0FF30E7E7B08A2065708A0E
:1029300060650420A06101202062E0610020A062A7
:1029400003203060286CE065606800F00300606080
:102950002349286B0860A86A012809D1E86C0A3865
:10296000A064686C0A386064E86B0B38A0650FE0FF
:102970000020A862A86CA064A86C0C386064E86BA6
:102980000C38A06524206061606840F02800606019
:10299000A06820F00100A060A06840F01400A060D2
:1029A00040F6120020614FF4C8770DE0E06E384029
:1029B00050B1A06820F00400A06028780649FFF715
:1029C00065FA6FF0010098E7A06800F004000428A1
:1029D000ECD0002091E7000006F5FFFFBC090020C5
:1029E00020000020EC0F0020084C01010748084996
:1029F0000860704710B50220FEF703FC0020FEF7C8
:102A000029FC0020FEF767FC10BD0000006CDC0212
:102A10002400002040EA01039B0703D009E008C915
:102A2000121F08C0042AFAD203E011F8013B00F893
:102A3000013B521EF9D27047D2B201E000F8012BDF
:102A4000491EFBD270470022F6E710B513460A462E
:102A500004461946FFF7F0FF204610BD034611F863
:102A6000012B00F8012B002AF9D1184670472DE9F7
:102A7000F05F0546002092469B4688460646814602
:102A800040241BE0284641464746224600F041F8D4
:102A900053465A46C01A914110D311461846224651
:102AA00000F028F82D1A67EB01084F462246012056
:102AB000002100F01FF817EB00094E41201EA4F181
:102AC0000104DFDC484631462A464346BDE8F09F14
:102AD000064C074D06E0E06840F0010394E807006B
:102AE00098471034AC42F6D3FDF7E8FAE84C010100
:102AF000F84C0101202A04DB203A00FA02F1002000
:102B000070479140C2F1200320FA03F3194390402B
:102B10007047202A04DB203A21FA02F00021704796
:102B200021FA02F3D040C2F1200291400843194635
:102B3000704700000FB4054B10B503A9044A029872
:102B400000F018F810BC5DF814FB00001F02010132
:102B50003000002002E008C8121F08C1002AFAD184
:102B600070477047002001E001C1121F002AFBD10D
:102B7000704700002DE9FF4F8DB00F460546002637
:102B800006E025280BD0DDE90F1290476D1C761C5E
:102B900028780028F5D111B03046BDE8F08F002428
:102BA000A246A1460122EC4900E0044315F8013F8A
:102BB000203B02FA03F00842F7D128782A2810D0E7
:102BC0006FF02F022878A0F13001092914D80AEB00
:102BD0008A0102EB410144F0020400EB010A6D1C82
:102BE000F0E701CF5FEA000A03D544F40054CAF1CC
:102BF000000A44F002046D1C28782E2817D115F81D
:102C0000010F44F004042A280ED06FF02F02287818
:102C1000A0F1300109290AD809EB890102EB410131
:102C200000EB01096D1CF2E757F8049B6D1C287836
:102C30006C280FD006DC4C2817D068280DD06A28E5
:102C400014D104E0742810D07A280FD10DE044F498
:102C500000140AE044F4801401E044F4401469785C
:102C6000814202D104F580146D1C6D1C2A786E2AF5
:102C70001FD00CDC632A31D004DC002A8BD0582A08
:102C800011D1A3E0642A68D0692A0CD165E0732AC7
:102C90002ED004DC6F2A73D0702A04D19BE0752AF1
:102CA0006FD0782A6ED01046DDE90F129047761C5F
:102CB00050E1C4F30250022806D0032809D00428AA
:102CC00001CF09D0066045E101CFF117C0E90061ED
:102CD00040E101CF06803DE106703BE117F8040BAF
:102CE0008DF8000000208DF80100EB46012003E084
:102CF00057F804BB4FF0FF3061074FF0000102D4DA
:102D00000DE008F10101884649450FDA8045F8DBFE
:102D10001BF808100029F4D108E008F101018846E9
:102D20008142FADB1BF808100029F6D1DDE90F23F8
:102D3000AAEB08008146214600F036F9304400EB4A
:102D4000080604E0DDE90F121BF8010B9047B8F10B
:102D50000108F7D221464846F7E00A21C4F302539E
:102D60004FF0000B0891022B04D001CFC117032BA9
:102D700009D00AE0FF1D27F00707F7E8020108E085
:102D800032E01FE020E000B2C117042B01D140B2B5
:102D9000C117031E71F1000307DA4FF0000CD0EBEE
:102DA0000C006CEB01012D2302E0230504D52B233D
:102DB0008DF82430012303E0E30701D02023F7E757
:102DC000984658E00A2110E010210EE010204FF044
:102DD000000B08900CE010214FF0000B44F00404AD
:102DE0004FF00809089103E008214FF0000B08910B
:102DF000C4F30253022B04D001CF0021032B06D0D1
:102E000006E0FF1D27F00707F7E8020103E080B2A4
:102E1000042B00D1C0B24FF0000823072BD5702A35
:102E200007D0DDF820C08CF0100C5CEA0B0C05D04C
:102E30000EE040238DF82430012308E050EA01031E
:102E400006D030238DF824308DF8252002239846B3
:102E5000DDF820C08CF0080C5CEA0B0C0BD150EABA
:102E6000010301D1630706D530238DF824304FF0DC
:102E70000108A9F10109582A04D038A20B9208AA26
:102E80000A920BE03AA2F9E75B46089AFFF7EFFDDA
:102E90000B9B9B5C0A9A521E0A92137050EA010225
:102EA000F2D10A98ADEB000000F1200B600702D5CB
:102EB00024F4803401E04FF00109D94502DDA9EB8B
:102EC0000B0000E0002000EB0B0141440890AAEB4E
:102ED000010AE00306D4DDE90F232146504600F045
:102EE00063F806444FF0000908E009A911F8090049
:102EF000DDE90F12904709F10109761CC145F4DBA9
:102F0000E0030CD5DDE90F232146504600F04CF8D4
:102F1000064404E0DDE90F1230209047761C089942
:102F2000481E08900029F5DC08E00A980A99007804
:102F3000491C0A91DDE90F129047761CBBF1000194
:102F4000ABF1010BF1DC21465046DDE90F2300F027
:102F500019F806446D1C1BE6092801003031323394
:102F600034353637383961626364656600000000C5
:102F700030313233343536373839414243444546AF
:102F8000000000002DE9F041044600251E461746CA
:102F9000880404D405E039462020B0476D1C641E27
:102FA000F9D52846BDE8F0812DE9F0410446002519
:102FB0001E469046C80301D5302700E0202788042C
:102FC00004D505E041463846B0476D1C641EF9D56E
:102FD0002846BDE8F081000001460869022802D0B9
:102FE0000869032817D1886ED0F80002214A904260
:102FF00004D120480C388A6EC2F80002886ED0F8DE
:1030000000021C4A521E904231D11A480E388A6E74
:10301000C2F800022BE0886A90B9886ED0F80002EE
:10302000144A521E904205D0886ED0F80002521CFD
:1030300090421CD10F4820388A6EC2F8000216E078
:10304000886ED0F800020B4A904204D109482B3810
:103050008A6EC2F80002886ED0F80002054A521E3D
:10306000904204D103482C388A6EC2F80002002036
:103070007047000008F5FFFF0146024850F82100A4
:1030800070470000584C01012DE9FC5F81460C4659
:103090009046002600274546002001908346009078
:1030A0008246B9F1000F02D18048BDE8FC9FB8F11B
:1030B000000F01D17D48F8E70CB97C48F5E73521D0
:1030C0002046FFF7C0FC002005F8010B012201A9F2
:1030D000484600F081FA8246BAF1000F01D050460E
:1030E000E3E79DF804003B2803D10020C9F8240041
:1030F0000AE09DF804003F2803D10120C9F824000C
:1031000002E06A481438D0E79DF8040005F8010B86
:103110009DF804002070012201A9484600F05CFAE5
:103120008246BAF1000F01D05046BEE79DF8040078
:1031300005F8010B9DF8040060709DF8040000F094
:10314000F00700260020C9F8280066E0012201A946
:10315000484600F041FA8246BAF1000F01D05046CD
:10316000A3E79DF8040005F8010B07F0100058B123
:10317000A0780121B1400843A0709DF80410A01D63
:10318000815527F0100748E007F0200060B1E07893
:103190000121B1400843E0709DF8041004F10E00D5
:1031A000815527F0200738E007F0400060B1207912
:1031B0000121B140084320719DF8041004F116006C
:1031C000815527F0400728E007F0800018B36079A8
:1031D0000121B140084360719DF804203046761CFF
:1031E00004F11E010A549DF8040000F00F0000993C
:1031F000084300909DF8040000F0F0079DF80400DB
:1032000000F00F00022807DA9DF8040000F00F001C
:10321000C9F8280000E002E000BF002F96D100BFEF
:10322000607800F00F022946484600F0D5F9824642
:10323000BAF1000F01D0504637E7607800F00F0276
:10324000294604F12600FFF7E5FB607800F00F0047
:103250000544009818B3012201A9484600F0BCF9C2
:103260008246BAF1000F01D050461EE702264FF009
:10327000000B05E03046761C18F8000080EA0B0BC6
:10328000A5EB0800B042F5DC9DF80400584502D0DB
:103290000648203809E79DF8040005F8010BA5EB66
:1032A0000800401E88F800000020FEE60DF5FFFF34
:1032B0002DE9F04705460C460027B846B94605B14A
:1032C00014B99C48BDE8F087607900F0010038B17E
:1032D000A07F00F00F00012802DD96481838F1E7C2
:1032E000A07800F0010080B1A07800F0020060B189
:1032F000E07900F0100040B9A079112802DBA07934
:10330000132802DD8B481538DCE7A07800F00200B6
:10331000E0B3E07900F0100010B186481938D1E729
:10332000E07900F00F00012802DD82481938C9E772
:10333000A07800F0010048B394F806A04FEAEA71C3
:103340000AEB1171081100F04DFFF8B1A679F117E1
:1033500006EB11710911A6EB0110FFF78DFEA8B164
:10336000A679F11706EB1171081100F03BFFE86236
:10337000A679F11706EB11710911A6EB0110FFF701
:103380007BFE2863E07900F00F00A862286902281C
:103390000BD1E07800F0010010B96648163891E7CB
:1033A000A07B10B1634816388CE7207900F001004B
:1033B000A0B1A07DFF2805DAA07D0C30E86394F869
:1033C00016900DE0A86A08B90C20E863A86A0128E5
:1033D00001D10B20E8634FF0FF3901E00C20E863D6
:1033E000E07800F0020010B152481A386AE742F261
:1033F0007071286B4843A864207900F0020070B116
:10340000E07D0A2802D04B481B385BE7E07DC0EB2B
:103410000010800100F5F870296B4843A8646079BA
:1034200000F0020080B1E07F00F00F0001280BD017
:10343000A07F00F00F0020B9E07F00F00F000E2801
:1034400002D03C481C383DE720206865A07800F099
:10345000040050B1207A102802DB207AFF2802D124
:1034600034481D382EE7207A6865286BC0EB0011C0
:1034700001EB4010E864286BC0EB0010C0010B307A
:103480006864A86A012835D1E07800F0040010B91A
:103490006FF4316016E7207CC11700EB11714FEA21
:1034A0002118207CC11700EB11710911A0EB011745
:1034B000B8F1040F01DC052F02DD6FF4316001E784
:1034C0000120B84009F10101884202DC6FF431604B
:1034D000F8E6012000FA08F0C0EB00104FF470711C
:1034E00001EB8010296B48430B3068640120B84021
:1034F0000F30E864207900F0040020B1207E10B184
:103500000C481F38DEE6FE2045F8500F0020A87555
:10351000E8752877687755F8280C503D10B91020C9
:10352000286401E016202864042028610120A86096
:103530000020C7E60DF5FFFF0246916600207047A8
:103540000246034802600348016000207047000003
:10355000280000202C0000200146886ED0F80C02C4
:103560008A6ED2F80822904201D1012070470020D3
:10357000FCE770B503460C46002100BF16E0605C16
:103580009D6ED5F80862A855986ED0F80802401CC8
:103590009D6EC5F80802986ED0F80802B0F5007F5D
:1035A00003D100209D6EC5F80802491C9142E6DB5C
:1035B000002070BD014600208A6EC2F80002401E45
:1035C0008A6EC2F8040200208A6EC2F808028A6E6F
:1035D000C2F80C02704700002DE9F04104460F4686
:1035E00015460026B04649E02046FFF7B5FF70BB00
:1035F000A06ED0F80402A16ED1F80C1288420DD151
:10360000A06A012809D1A06ED0F80002234988429F
:1036100000D035E0DFF8848000E031E0A06ED0F823
:103620000C12425C3046761C3A54A06ED0F80C0264
:10363000401CA16EC1F80C02A06ED0F80C02B0F5CF
:10364000007F1BD10020A16EC1F80C0216E0FFE73D
:10365000A06ED0F80402A16ED1F80C1288420DD1F0
:10366000A06A012809D1A06ED0F800020B49884257
:1036700000D005E0DFF8248000E001E0AE42B3DBDB
:1036800000BFAE4202D14046BDE8F0812046FFF7C0
:10369000A3FCA06ED0F80002F6E7000009F5FFFFDA
:1036A0002DE9F74F88B00C461546002700200790FB
:1036B000804601200690002005900490039002901F
:1036C00001908246089820B11CB115B16068FF28AE
:1036D00003DDD1480BB0BDE8F08F4FF0010B0020A7
:1036E000059001200690AE1D04F10C0900BFBBF14E
:1036F000060F7CD2DFE80BF07B034090C1F120463F
:1037000000F060FD074660680790A068FF2801DCB4
:10371000A06800E0002080460898FFF74BFF0422D5
:1037200021460898FFF725FF022F09DD6068C117C1
:1037300000EB11610912A0EB0121C9B2049110E064
:10374000022F0CD1A068FF2809DCA068C11700EB8C
:1037500011610912A0EB0121C9B2049101E000201E
:103760000490012204A90898FFF703FF0898FFF7C7
:10377000BCF84FF0020B3EE1012204A90898FFF7C4
:103780002BFF8246BAF1000F04D00898FEF7F7FD30
:1037900050469FE760789DF81010884213D19DF83D
:1037A000100000F0F00090280AD09DF8100000F002
:1037B000F000602804D04FF0030B002006902AE0B0
:1037C0004FF0050B27E0607880F0FF009DF81010A7
:1037D000884215D19DF8100000F0F00090280CD020
:1037E0009DF8100000F0F000602806D000E001E134
:1037F0004FF0040B002006900DE04FF0050B0AE09F
:103800009DF81000602804D14FF0020B00200690B4
:1038100001E04FF0050BEEE0032F1CDAA81D301A73
:103820004044B0F5807F04DD0898FEF7A8FD7A4893
:1038300050E7424631460898FFF7CEFE8246BAF17D
:10384000000F04D00898FEF79AFD504642E7464420
:103850004FF000080EE00898FFF7ACFE4946DDE99E
:103860000720FFF786FE0898FFF73FF80798814486
:10387000002007904FF0020BBDE0032F21DAA81DB6
:10388000301AB0F5807F05DCA81D301A4044B0F531
:10389000807F04DD0898FEF772FD5F481AE7012279
:1038A00031460898FFF798FE8246BAF1000F04D01F
:1038B0000898FEF764FD50460CE7761CA8F1010855
:1038C0001CE004F10C00A9EB0000B0F5807F05DDE1
:1038D0000898FEF754FD5048FCE612E00898FFF700
:1038E00069FE012249460898FFF743FE0898FEF753
:1038F000FCFF09F101090798401E07904FF0020BE9
:1039000079E09DF8100000F0F00090280BD09DF8B1
:10391000100000F0F000602805D00898FEF72FFD99
:103920003D482738D6E6012203A90898FFF754FE40
:103930008246BAF1000F04D00898FEF720FD5046E9
:10394000C8E69DF8100028719DF80C0068714FF0D2
:10395000000B08988069E0B39DF81000612802D040
:103960006C2817D10CE02DA000682060002060605A
:103970009DF80C00A060002006904FF0010B37E08E
:10398000002060609DF80C00A060002006904FF0C1
:10399000010B2DE0042F2AD1069840BB9DF81000A2
:1039A000622810D09DF8100063280CD09DF81000FC
:1039B00000F0F00090281AD19DF81000902802D154
:1039C0009DF80C0098B115A0006820600020606090
:1039D00000E00EE04FF48070A060012005909DF89B
:1039E000100002909DF80C0001904FF0010B00BFF9
:1039F00000BF00E000BF00BFBBF1000F7FF477AE57
:103A00000598012803D10298287101986871A81DB2
:103A1000301A286000205DE60DF5FFFF00C00000B1
:103A200000000000F8B506460C4600200090002576
:103A300000274FF401712046FFF705F801222146C7
:103A40003046FFF7C9FD05463DB15F48854202D1CA
:103A50001FB9074601E02846F8BD0122611C304627
:103A6000FFF7BAFD05463DB15748854202D11FB95F
:103A7000074601E02846EFE7607886F86D000122EE
:103A8000A11C3046FFF7A8FD054665B14E488542AA
:103A900007D14FF48072E11C3046FFF79DFD2846A8
:103AA000DAE72846D8E7A278E11C3046FFF794FD14
:103AB00005463DB14448854202D11FB9074601E0A1
:103AC0002846C9E7012269463046FFF785FD0546CD
:103AD0003DB13D48854202D11FB9074601E0284665
:103AE000BAE7204600F09DF894F803029DF8001014
:103AF000484010B134483038AEE73348874200D1EF
:103B0000AAE7207810B130482E38A5E7607800F099
:103B10008000C8B9A078FE2802DD2B4831389BE729
:103B200096F8660000F0200010B127482F3893E780
:103B300096F86C0000F04000617801F04001884286
:103B400040D021482F3887E7607800F0400058B90E
:103B5000A07810B11C4831387EE7607800F0200072
:103B600078B319482F3877E796F8670000F0C0005F
:103B7000C02806D0607800F0200010B112482F381D
:103B80006AE7607800F01F00042802DD0E48333831
:103B900062E76078C12808D1E078102802DBE0787D
:103BA000FE2802DD0848323856E76078C22802D184
:103BB0000548343850E7A078012803D0024831384E
:103BC0004AE7FFE7002047E709F5FFFF70B5054624
:103BD0000C462846FFF7EEFC204600F022F80122B2
:103BE00021462846FFF7C5FC0122611C2846FFF745
:103BF000C0FC0122A11C2846FFF7BBFCA278E11CF7
:103C00002846FFF7B6FC012204F203212846FFF7FD
:103C1000B0FC2846FEF769FE607885F86700002052
:103C200070BD0146002208784B7858408B78584088
:103C300081F8030200BF07E091F80302CB1C9B5CF4
:103C4000584081F80302521C88789042F4DC00202E
:103C5000704700002DE9F04FADF2246D0446884610
:103C6000154600270020049040F2CB30039000203E
:103C700002903CB1B8F1000F04D01DB1D8F8040097
:103C8000FF2804DDD6480DF2246DBDE8F08F00BF9B
:103C9000206D0290606C0390AE1D0DF21C414046F9
:103CA00000F0A0F90DF21C4100EB010B8946002049
:103CB00084F865004FF0050A00BFBAF10A0F6FD211
:103CC000DFE80AF06FA3F7146E05F55BF4F3ABEBD6
:103CD000090286AB4946204600F0E1F99DF81A0238
:103CE0000490049881444FF0030A71E114F8650FC1
:103CF000401C207014F86509042807DB2046FEF7F5
:103D00003EFBB74F2F3F4FF0040A35E09DF81902F4
:103D100000F0800010B90020019009E09DF8190220
:103D200000F0400010B90120019001E00220019054
:103D300086A92046FFF74AFF05A92046FFF772FE35
:103D4000074603986064A6483038874202D0401E78
:103D5000874205D12046FEF712FB4FF0040A0BE024
:103D600047B10198012802D14FF0030A04E04FF057
:103D7000060A01E04FF0070A2AE19DF8150000F05D
:103D8000800010B94FF0000A09E09DF8150000F01E
:103D9000400010B94FF0010A01E04FF0020A17E1AC
:103DA00013E1002084F865009DF8150000F0200064
:103DB00060B19DF816200DF117013046FEF72AFE7E
:103DC0009DF8160006444FF0080A17E09DF81620EB
:103DD0000DF117013046FEF71DFE9DF81600064452
:103DE000A81D301A801E2860701E06460078687173
:103DF000701E0646007828714FF0040A9DF81500E1
:103E000080F0400084F86C00E2E09DF8150000F0BE
:103E1000100094F8661001F04001B0EBA10F26D11C
:103E20009DF8150000F00F0068B994F8660000F0E6
:103E3000200028B14FF0050A002084F8650033E027
:103E40004FF0060A30E0019801280DD19DF81902C3
:103E500000F00F0010B94FF0080A01E04FF0030A1C
:103E6000002084F865001FE04FF0060A1CE094F87B
:103E70006C0000F0200028B1002084F865004FF0AD
:103E8000080A11E0216D0298814202D0206D029053
:103E9000FEE694F8660080F0400084F8660004981E
:103EA000A9EB00094FF0050A92E036E04BE05DE037
:103EB000FFE79DF8150000F0200010B14FF0060A52
:103EC0002AE0002084F865009DF8150000F00F003E
:103ED000052820D2DFE800F003040D0E19001AE0D7
:103EE0009DF8160020B19DF8170060654FF0090A93
:103EF00011E010E09DF8160030B19DF8170003990D
:103F0000484360644FF0090A05E02046FEF737FA9F
:103F10004FF0040A00BF00BF5AE09DF814008DF86E
:103F200018029DF8150040F020008DF815008DF85E
:103F3000190201208DF81A029DF817008DF81B0256
:103F40004FF0030A44E094F864008DF8180294F8E6
:103F50006C0000F04000802141EAA0008DF81902B9
:103F600000208DF81A024FF0030A31E094F8640043
:103F70008DF8180200208DF81A0207F62B3080B158
:103F8000042802D0342812D100BF94F86C0000F04D
:103F90004000812141EAA0008DF819024FF0030A88
:103FA00011E02046FEF7EBF94FF0040A0BE094F81D
:103FB0006C0000F04000822141EAA0008DF8190257
:103FC0004FF0030A00BF00BF02E04FF0040A00BF39
:103FD00000BFBAF1040F7FF470AE384653E600001C
:103FE0000DF5FFFF2DE9F04105460F4600263C4642
:103FF00028682060241D284600F0E4F8012806D037
:10400000022805D0032813D0042844D122E042E03E
:10401000A868FF2801DD002607E0A868C11700EBAB
:1040200011610912A0EB0121CEB204F8016B32E05C
:104030006868C11700EB11610912A0EB0121CEB233
:1040400004F8016B324605F10C012046FEF7E2FC54
:10405000344420E06868C11700EB11610912A0EB3D
:104060000121CEB204F8016B324605F10C01204665
:10407000FEF7D0FC3444A868FF2801DD002607E0E5
:10408000A868C11700EB11610912A0EB0121CEB2A3
:1040900004F8016B00BF00BFE01BBDE8F0812DE913
:1040A000F04105460F4616461C46686DB04210DAD0
:1040B0005435287C2070A87C40F02000A8746070E3
:1040C00015F85409A070A2783946E01CFEF7A2FC4E
:1040D0000EE015F8640F2070A87820F02000A8707A
:1040E000643D6070A670A2783946E01CFEF792FC31
:1040F000607880F0400085F866000020BDE8F0811F
:1041000030B5ADF5017D04460025012084F8650039
:1041100000BF14F8640F8DF80000C1208DF8010075
:1041200001208DF80200FE208DF803006078401C0D
:104130006070643C69462046FFF748FD69462046AA
:10414000FFF770FC05461E48854202D0401E85429E
:104150000AD1206A012800D12EE02046FEF70FF98F
:1041600028460DF5017D30BDBDB99DF8020001283E
:1041700013D19DF80100E1280FD19DF80300FE281E
:104180000BD19DF8000094F86410884205D1FE2000
:104190002065002084F865000EE094F8650004288E
:1041A00009D1206A012800D106E02046FEF7E7F891
:1041B0000348401CD5E7ACE700BF0020D1E7000072
:1041C000DDF4FFFF014600204A682AB18A680AB17F
:1041D000042006E0032004E08A680AB1022000E01F
:1041E000012070470146024850F821007047000046
:1041F000184C010170B505462846FDF796FE08B932
:10420000154870BD2846FDF7CDFE0546C5EBC50037
:10421000124901EB0014256000212046FDF770FFD4
:10422000206838B141F2883060614FF4BA70E062C2
:10423000012020632046FDF78AFF012805D10121D6
:104240002046FDF75DFF0020DBE701212046FDF75A
:1042500057FF0148801ED4E710F5FFFF4C100020E7
:1042600010B5A0B0002480216846FEF7ECFB68463C
:1042700000F0B0FCFDF747FF01213048FFF760F97F
:1042800000BF56E0C4EBC4012C4A02EB01107021C0
:10429000FEF7D9FBC4EBC400284901EB0010046011
:1042A0000120C4EBC401254A02EB011188614FF4DF
:1042B000BA70C4EBC40102EB0111C8620120C4EB67
:1042C000C40102EB011108634FF4BA70C4EBC401DE
:1042D00002EB011148630120C4EBC40102EB0111A0
:1042E00088630C20C4EBC40102EB0111C86342F2E5
:1042F0006070C4EBC40102EB0111C86440F2CB3022
:10430000C4EBC40102EB0111486442F27070C4EBCB
:10431000C40102EB01118864FE20C4EBC40102EB6E
:10432000011108652020C4EBC40102EB01114865AE
:10433000641C012CA6DB002020B010BD4C10002016
:104340002DE9F043ADF2144D0746884614461E464B
:104350004FF000093846FDF7E8FD20B93A480DF264
:10436000144DBDE8F0833846FDF71CFE0746C7EB49
:10437000C700364901EB00152F606068B0F5007F7B
:1043800002DD3148C01EEAE72869042802D02E4821
:10439000801FE4E708F0010010B10120A86101E0EE
:1043A0000020A86100212846FDF7AAFE206882901F
:1043B0006068C11700EB11610912A0EB0121839124
:1043C000D4F80802B0F5807F02DD4FF4807001E080
:1043D000D4F80802849004F1080185A8839AFEF7B6
:1043E00019FB4FF402716846FEF72DFBA86A30B93D
:1043F0006A4682A92846FFF753F9814605E06A46D6
:1044000082A92846FFF726FC81464FF40271304608
:10441000FEF719FBB9F1000F0FD19DF8040086F8E3
:1044200004029DF8050086F80502009830600DF141
:104430000601301D009AFEF7EDFA01212846FDF72E
:104440005FFE48468BE7000010F5FFFF4C10002090
:1044500000487047010602022DE9F0418EB0074680
:104460000D46904600263846FDF75FFD18B97248A4
:104470000EB0BDE8F0813846FDF794FD0746C7EB66
:10448000C7006E4901EB00142760A06810B12046F8
:10449000FDF775FF00212046FDF732FE05F0030011
:1044A00058B1012805D002280BD140F6B830606120
:1044B0000BE04FF4E160606107E04FF496606061EB
:1044C00003E041F28830606100BF00BF05F00400E6
:1044D00010B10120E06101E00020E0614FF4BA700A
:1044E000E062606305F01800082805D0102807D1A5
:1044F00004202063A06307E002202063A06303E0A0
:1045000001202063A06300BF00BF05F0200010B9A8
:104510000020206201E001202062FE2020650020B2
:1045200084F8670084F8660084F86D0084F86C00F5
:10453000102020640020E0602046FDF75AFF061E90
:1045400001D0304694E72046FDF715FE4246694605
:104550002046FEF799FD061E4DD1206A38B9206825
:1045600028B969462046FEF7A3FE064604E06946E0
:10457000204600F075F8064686B9E06970B16946D4
:10458000204600F011FA064646B12046FDF7F7FE38
:1045900001212046FDF7B4FD304669E7A6B3204669
:1045A000FDF763FE424669462046FEF76DFD061E96
:1045B00018D1206A38B9206828B969462046FEF724
:1045C00077FE064604E06946204600F049F80646B4
:1045D000D6B12046FDF7D3FE01212046FDF790FD20
:1045E000304645E72046FDF7CAFE01212046FDF78B
:1045F00087FD30463CE72046FDF7C1FE01212046FD
:10460000FDF77EFD304633E7FFE7A06A01280DD1B4
:104610002046FFF775FD061E08D02046FDF7AFFEC9
:1046200001212046FDF76CFD304621E7012120469F
:10463000FDF766FD00201BE710F5FFFF4C10002082
:1046400000A070474465632032312032303137009A
:1046500000A0704730393A35333A35350000000054
:104660002DE9F84F04460D464FF00008C146C246FA
:1046700000260020009004B115B9CA48BDE8F88FA3
:10468000687900F0010028B3A87F00F00F0001282E
:1046900002DDC4481838F1E7A87F00F00F00A062DF
:1046A000012610E0701E05F11E01085C00F00F01EC
:1046B00005F11E00805D00F00F00814202DDB94867
:1046C0002138DBE7761C68790121B14008400028D9
:1046D000E8D101E00020A062A87800F002000028E4
:1046E00044D0E87900F0100020B1606BE062A06B6C
:1046F00020633BE0E87900F00F00012802DDA948C3
:104700001938BBE7A87800F0010048B395F806B067
:104710004FEAEB710BEB11710811FFF763FD00B36A
:10472000AF79F91707EB11710911A7EB0110FEF72B
:10473000A3FCB0B1AF79F91707EB11710811FFF7BE
:1047400051FDE062AF79F91707EB11710911A7EB81
:104750000110FEF791FC2063E87900F00F00A062E1
:1047600004E04FF4BA70E06201202063287900F081
:104770000100A0B1A87DFF2805DAA87D0C30E06318
:1047800095F816A00DE0A06A08B90C20E063A06AB5
:10479000012801D10B20E0634FF0FF3A01E00C202B
:1047A000E06342F27071206B4843A064287900F006
:1047B000020068B1E87D10B97A481B385EE7E87DF1
:1047C000C0EB0010800100F5F870216B4843A06435
:1047D0004FF00D084FF00409202060650126A9E084
:1047E00005F11E00805D00F00F000090761C00981F
:1047F000012802D00F286FD13BE0A8780121B140F9
:10480000084060B1A81D805D18B1A81D805DFF281B
:1048100002D164481D3831E7A81D805D6065E878E5
:104820000121B140084018B305F10E01885DC117A0
:1048300000EB11714FEA211905F10E01885DC117D6
:1048400000EB11710911A0EB0118B9F1090F02DC9D
:10485000B8F10F0F02DD6FF431600FE7012000FAAD
:1048600008F00AF10101884202DC6FF4316005E7CB
:104870005FE0A8780121B140084070B3A81D805DB9
:1048800000F0C00030B1402807D0802808D0C028F0
:104890000CD108E00020A06508E00120A06505E03B
:1048A0000220A06502E00320A06500BF00BFA81D94
:1048B000805D00F03F00082819D2DFE800F01804FE
:1048C000070A0F1812150020E06511E00120E065CD
:1048D0000EE00320E0650BE02AE00AE00220E0653C
:1048E00006E00420E06503E00520E06500E000BF8D
:1048F00000BFE8780121B1400840C0B105F10E00C9
:10490000805D00F0800020B105F10E00805D206622
:104910000DE005F10E00805D00F07F0028B105F18B
:104920000E00805D0020206601E00020206600E08F
:1049300000BF00BF68790121B140084000287FF422
:104940004FAF012000FA09F0C0EB00100B2101EB82
:10495000801000F57070216B48436064012000FAFC
:1049600008F00F30216B4143E164202020650020D6
:1049700084F8660084F8670084F86C0084F86D00A1
:10498000A06A38B9E06B102801D9E06B00E0102074
:10499000206401E016202064042020610120A06032
:1049A00000206BE60DF5FFFF2DE9F04F85B00446C2
:1049B0000D464FF00008C146002684A00068049010
:1049C0000020039082460027216BA06CB0FBF1F021
:1049D0000290216B606CB0FBF1F00190216BE06CF8
:1049E000B0FBF1F00090A87800F0020018B10020B0
:1049F00005B0BDE8F08FA87800F00100A0B395F8ED
:104A000006B04FEAEB710BEB11710811FFF7EAFBEF
:104A1000804695F806B04FEAEB710BEB1171091166
:104A2000ABEB0110FEF728FB8146B8F1000F02D076
:104A3000B9F1000F01D10020DAE798FBF9F0012865
:104A400004DA4FF001084FF0030910E0A879C1170C
:104A500000EB11714FEA2118A879C11700EB117111
:104A60000911A0EB011902E0FFE70020C0E7606B2D
:104A7000E062A06B206394F8280040F010008DF8ED
:104A8000110009EB0810C0B28DF812009DF810005B
:104A90009DF8111048409DF8121048408DF8130001
:104AA0002046FEF787FD042204A92046FEF761FD9B
:104AB0002046FDF71AFF012203A92046FEF78CFDD0
:104AC00006460EB1304693E79DF80C00FF2801D052
:104AD0003F488DE79DF80C70012203A92046FEF7A0
:104AE0007BFD06460EB1304682E79DF80CA09DF88E
:104AF0000C0047400AF0100098B3012203A9204699
:104B0000FEF76AFD06460EB1304671E79DF80C00CF
:104B100047409DF812009DF80C10884222D19DF864
:104B20000CB04FEAEB710BEB11710811FFF75AFB58
:104B3000E0629DF80CB04FEAEB710BEB11710911BB
:104B4000ABEB0110FEF798FA2063206B0299484303
:104B5000A064206B019948436064206B009948432E
:104B6000E06402E01A48401E42E70AF0200058B113
:104B7000012203A92046FEF72FFD06460EB130465E
:104B800036E79DF80C0047400AF0400058B101227A
:104B900003A92046FEF720FD06460EB1304627E762
:104BA0009DF80C004740012203A92046FEF714FDA2
:104BB00006460EB130461BE79DF80C00474017B182
:104BC0000348801E14E7002012E70000FF101300C6
:104BD000D4F4FFFF10B5044602A12046FDF73EFFC6
:104BE00010BD000031313200090000000A00000051
:104BF0000B0000000C00000000D0014010D001406C
:104C000020D0014030D001400000014000000000F1
:104C100000000000000000007401000074010000AA
:104C20002E020000E80200005C040000D005000035
:104C30004407000000000000000000000002000027
:104C4000000300000004000000060000000800004F
:104C50000000000000000000000000000100000053
:104C60000200000004000000080000001000000026
:104C700020000000400000000C00000014000000B4
:104C80000000000000000000000000000000000024
:104C90000000000000000000556E6B6E6F776E2004
:104CA00074696D652149742063616E2062652053CB
:104CB0003A53686F727420776169742835532920DC
:104CC0006F72204C3A4C6F6E67207761697428339D
:104CD00030532920453A45786974207468697320F7
:104CE0007761697421000000F84C01010000002088
:104CF00034000000542B01010000000000000000FF
:104D000000000000000000000000000000000000A3
:104D1000000000000000000001000000006CDC0248
:0C4D200000000000000000000000000087
:04000005010100B540
:00000001FF
